{
  "contractName": "Payment",
  "abi": [
    {
      "inputs": [],
      "payable": false,
      "stateMutability": "nonpayable",
      "type": "constructor"
    },
    {
      "constant": false,
      "inputs": [
        {
          "name": "billId",
          "type": "uint256"
        }
      ],
      "name": "pay",
      "outputs": [
        {
          "name": "",
          "type": "uint256"
        }
      ],
      "payable": true,
      "stateMutability": "payable",
      "type": "function"
    },
    {
      "constant": false,
      "inputs": [],
      "name": "getAmountDue",
      "outputs": [
        {
          "name": "",
          "type": "uint256"
        }
      ],
      "payable": false,
      "stateMutability": "nonpayable",
      "type": "function"
    },
    {
      "constant": true,
      "inputs": [],
      "name": "getPayers",
      "outputs": [
        {
          "name": "",
          "type": "address[]"
        }
      ],
      "payable": false,
      "stateMutability": "view",
      "type": "function"
    },
    {
      "constant": false,
      "inputs": [],
      "name": "getContractBalance",
      "outputs": [
        {
          "name": "",
          "type": "uint256"
        }
      ],
      "payable": false,
      "stateMutability": "nonpayable",
      "type": "function"
    }
  ],
  "bytecode": "0x608060405234801561001057600080fd5b50600560018190555060006040805190810160405280736d4e5bac0fc3ff8df7a713dc0bb47cef310a92cb73ffffffffffffffffffffffffffffffffffffffff1681526020016000151581525090806001815401808255809150509060018203906000526020600020016000909192909190915060008201518160000160006101000a81548173ffffffffffffffffffffffffffffffffffffffff021916908373ffffffffffffffffffffffffffffffffffffffff16021790555060208201518160000160146101000a81548160ff0219169083151502179055505050506000604080519081016040528073eec7a4e837eeb5242e9d20976286a0ccd464efb573ffffffffffffffffffffffffffffffffffffffff1681526020016000151581525090806001815401808255809150509060018203906000526020600020016000909192909190915060008201518160000160006101000a81548173ffffffffffffffffffffffffffffffffffffffff021916908373ffffffffffffffffffffffffffffffffffffffff16021790555060208201518160000160146101000a81548160ff0219169083151502179055505050506000604080519081016040528073e603afec589146c9a03786255b9386462eaed9e573ffffffffffffffffffffffffffffffffffffffff1681526020016001151581525090806001815401808255809150509060018203906000526020600020016000909192909190915060008201518160000160006101000a81548173ffffffffffffffffffffffffffffffffffffffff021916908373ffffffffffffffffffffffffffffffffffffffff16021790555060208201518160000160146101000a81548160ff0219169083151502179055505050506103b2806102a76000396000f300608060405260043610610062576000357c0100000000000000000000000000000000000000000000000000000000900463ffffffff1680631055d708146100675780636f9fb98a146100d3578063c290d691146100fe578063eb32fc4c14610132575b600080fd5b34801561007357600080fd5b5061007c61015d565b6040518080602001828103825283818151815260200191508051906020019060200280838360005b838110156100bf5780820151818401526020810190506100a4565b505050509050019250505060405180910390f35b3480156100df57600080fd5b506100e86101ed565b6040518082815260200191505060405180910390f35b61011c6004803603810190808035906020019092919050505061020c565b6040518082815260200191505060405180910390f35b34801561013e57600080fd5b5061014761037c565b6040518082815260200191505060405180910390f35b60606000808054806020026020016040519081016040528092919081815260200182805480156101e257602002820191906000526020600020905b8160009054906101000a900473ffffffffffffffffffffffffffffffffffffffff1673ffffffffffffffffffffffffffffffffffffffff1681526020019060010190808311610198575b505050505091505090565b60003073ffffffffffffffffffffffffffffffffffffffff1631905090565b600080600090505b600080549050811015610373573373ffffffffffffffffffffffffffffffffffffffff1660008281548110151561024757fe5b9060005260206000200160000160009054906101000a900473ffffffffffffffffffffffffffffffffffffffff1673ffffffffffffffffffffffffffffffffffffffff161415610366576000818154811015156102a057fe5b9060005260206000200160000160149054906101000a900460ff16151515610330576040517f08c379a000000000000000000000000000000000000000000000000000000000815260040180806020018281038252600e8152602001807f416c72656164792070617965642100000000000000000000000000000000000081525060200191505060405180910390fd5b600160008281548110151561034157fe5b9060005260206000200160000160146101000a81548160ff0219169083151502179055505b8080600101915050610214565b82915050919050565b60006001549050905600a165627a7a7230582007f79a1f36b9b09128415691170fa71bfa21d9b754fcad9caca98b27da92065f0029",
  "source": "pragma solidity ^0.4.17;\n\ncontract Payment {\n\t\n\tstruct Payer {\n\t    address addr;\n        bool payed;  // if true, that person already voted\n    }\n    \n    Payer[] payers;\n    uint amountDue;\n\n    constructor() public {\n        amountDue = 5;\n    \tpayers.push(Payer({\n    \taddr: 0x6D4E5BAc0fc3fF8dF7A713DC0bB47cEF310a92cB,\n    \tpayed: false\n    \t}));\n    \tpayers.push(Payer({\n    \taddr: 0xeec7A4E837eEB5242E9d20976286a0cCD464EFb5,\n    \tpayed: false\n    \t}));\n    \tpayers.push(Payer({\n    \taddr: 0xe603AFeC589146C9A03786255b9386462EaeD9e5,\n    \tpayed: true\n    \t}));\n\n    }\n\n\t// Paying a bill\n\tfunction pay(uint billId) public payable returns (uint) {\n\t  for (uint p = 0; p < payers.length; p++) {\n            if (payers[p].addr == msg.sender) {\n      \t\t\trequire(!payers[p].payed, \"Already payed!\");\n      \t\t\tpayers[p].payed = true;\n            }\n        }\n\n\t  return billId;\n\t}\n\t\n\tfunction getAmountDue() returns (uint){\n\t\treturn amountDue;\n\t}\n\n\t// Retrieving the payers\n\tfunction getPayers() public view returns (address[]) {\n\t  address[] payers_addresses;\n\t  return payers_addresses;\n\t}\n\tfunction getContractBalance() public returns (uint){\n\t  return this.balance;\n\t}\n}\n",
  "sourcePath": "/Users/lupus/Documents/TAIP/smart-contracts-ethereum/misc/poc1/contracts/Payment.sol",
  "compiler": {
    "name": "solc",
    "version": "0.4.24+commit.e67f0147.Emscripten.clang"
  },
  "schemaVersion": "2.0.1",
  "updatedAt": "2019-01-08T23:29:33.208Z"
}