{
  "contractName": "Payment",
  "abi": [
    {
      "constant": true,
      "inputs": [
        {
          "name": "",
          "type": "uint256"
        }
      ],
      "name": "payers",
      "outputs": [
        {
          "name": "",
          "type": "address"
        }
      ],
      "payable": false,
      "stateMutability": "view",
      "type": "function"
    },
    {
      "constant": false,
      "inputs": [
        {
          "name": "billId",
          "type": "uint256"
        }
      ],
      "name": "pay",
      "outputs": [
        {
          "name": "",
          "type": "uint256"
        }
      ],
      "payable": false,
      "stateMutability": "nonpayable",
      "type": "function"
    },
    {
      "constant": true,
      "inputs": [],
      "name": "getPayers",
      "outputs": [
        {
          "name": "",
          "type": "address[4]"
        }
      ],
      "payable": false,
      "stateMutability": "view",
      "type": "function"
    }
  ],
  "bytecode": "0x608060405234801561001057600080fd5b506102d7806100206000396000f300608060405260043610610057576000357c0100000000000000000000000000000000000000000000000000000000900463ffffffff1680631055d7081461005c5780633ccfbd03146100af578063c290d6911461011c575b600080fd5b34801561006857600080fd5b5061007161015d565b6040518082600460200280838360005b8381101561009c578082015181840152602081019050610081565b5050505090500191505060405180910390f35b3480156100bb57600080fd5b506100da600480360381019080803590602001909291905050506101de565b604051808273ffffffffffffffffffffffffffffffffffffffff1673ffffffffffffffffffffffffffffffffffffffff16815260200191505060405180910390f35b34801561012857600080fd5b5061014760048036038101908080359060200190929190505050610213565b6040518082815260200191505060405180910390f35b610165610288565b60006004806020026040519081016040528092919082600480156101d4576020028201915b8160009054906101000a900473ffffffffffffffffffffffffffffffffffffffff1673ffffffffffffffffffffffffffffffffffffffff168152602001906001019080831161018a575b5050505050905090565b6000816004811015156101ed57fe5b016000915054906101000a900473ffffffffffffffffffffffffffffffffffffffff1681565b6000808210158015610226575060038211155b151561023157600080fd5b3360008360048110151561024157fe5b0160006101000a81548173ffffffffffffffffffffffffffffffffffffffff021916908373ffffffffffffffffffffffffffffffffffffffff160217905550819050919050565b6080604051908101604052806004906020820280388339808201915050905050905600a165627a7a72305820481b5472e1cb0002f53db1b250e2fb26cafbfee9389519d625fee282d0d521d50029",
  "source": "pragma solidity ^0.4.17;\n\ncontract Payment {\n\taddress[4] public payers;\n\n\t// Paying a bill\n\tfunction pay(uint billId) public returns (uint) {\n\t  require(billId >= 0 && billId <= 3);\n\n\t  payers[billId] = msg.sender;\n\n\t  return billId;\n\t}\n\t\n\t// Retrieving the payers\n\tfunction getPayers() public view returns (address[4]) {\n\t  return payers;\n\t}\n}\n",
  "sourcePath": "/Users/lupus/Documents/TAIP/Ethereum Smart Contracts/contracts/Payment.sol",
  "compiler": {
    "name": "solc",
    "version": "0.4.24+commit.e67f0147.Emscripten.clang"
  },
  "schemaVersion": "2.0.1",
  "updatedAt": "2018-11-13T20:35:12.512Z"
}